{
  "_format": "hh-sol-artifact-1",
  "contractName": "Commitment",
  "sourceName": "contracts/Commitment.sol",
  "abi": [
    {
      "inputs": [
        {
          "internalType": "uint256",
          "name": "commitmentGoal",
          "type": "uint256"
        },
        {
          "internalType": "uint64",
          "name": "date",
          "type": "uint64"
        },
        {
          "internalType": "address payable",
          "name": "receiver",
          "type": "address"
        },
        {
          "internalType": "uint256",
          "name": "amountToSave",
          "type": "uint256"
        }
      ],
      "stateMutability": "payable",
      "type": "constructor"
    },
    {
      "anonymous": false,
      "inputs": [
        {
          "indexed": true,
          "internalType": "address",
          "name": "previousOwner",
          "type": "address"
        },
        {
          "indexed": true,
          "internalType": "address",
          "name": "newOwner",
          "type": "address"
        }
      ],
      "name": "OwnershipTransferred",
      "type": "event"
    },
    {
      "anonymous": false,
      "inputs": [
        {
          "indexed": false,
          "internalType": "address",
          "name": "_from",
          "type": "address"
        },
        {
          "indexed": false,
          "internalType": "address",
          "name": "_to",
          "type": "address"
        },
        {
          "indexed": false,
          "internalType": "uint256",
          "name": "_value",
          "type": "uint256"
        }
      ],
      "name": "Transfer",
      "type": "event"
    },
    {
      "inputs": [],
      "name": "evaluate",
      "outputs": [],
      "stateMutability": "nonpayable",
      "type": "function"
    },
    {
      "inputs": [],
      "name": "owner",
      "outputs": [
        {
          "internalType": "address",
          "name": "",
          "type": "address"
        }
      ],
      "stateMutability": "view",
      "type": "function"
    },
    {
      "inputs": [],
      "name": "renounceOwnership",
      "outputs": [],
      "stateMutability": "nonpayable",
      "type": "function"
    },
    {
      "inputs": [
        {
          "internalType": "address",
          "name": "newOwner",
          "type": "address"
        }
      ],
      "name": "transferOwnership",
      "outputs": [],
      "stateMutability": "nonpayable",
      "type": "function"
    }
  ],
  "bytecode": "0x6080604052604051610668380380610668833981016040819052610022916100db565b61002b3361008b565b600193909355600280546001600160a01b0390921668010000000000000000026001600160e01b03199092166001600160401b0390931692909217179055604080518082019091523331808252602090910182905260035560045561013a565b600080546001600160a01b038381166001600160a01b0319831681178455604051919092169283917f8be0079c531659141344cd1fd0a4f28419497f9722a3daafe3b4186f6b6457e09190a35050565b600080600080608085870312156100f0578384fd5b845160208601519094506001600160401b038116811461010e578384fd5b60408601519093506001600160a01b038116811461012a578283fd5b6060959095015193969295505050565b61051f806101496000396000f3fe608060405234801561001057600080fd5b506004361061004c5760003560e01c8063715018a6146100515780637daa9efc1461005b5780638da5cb5b14610063578063f2fde38b14610082575b600080fd5b610059610095565b005b6100596100d4565b600054604080516001600160a01b039092168252519081900360200190f35b610059610090366004610402565b6102f8565b6000546001600160a01b031633146100c85760405162461bcd60e51b81526004016100bf90610430565b60405180910390fd5b6100d2600061038c565b565b60025467ffffffffffffffff16421161013e5760405162461bcd60e51b815260206004820152602660248201527f4974206973206e6f74207965742074686520636f6d6d69746d656e7420646561604482015265323634b7329760d11b60648201526084016100bf565b6000546001600160a01b031633146101685760405162461bcd60e51b81526004016100bf90610430565b6000600154600014156101805761017d6103dc565b90505b80156101c457600080546040516001600160a01b03909116914780156108fc02929091818181858888f193505050501580156101c0573d6000803e3d6000fd5b5050565b4760006127106101d68361017761049d565b6101e0919061047d565b6002549091506801000000000000000090046001600160a01b03166108fc61020883856104bc565b6040518115909202916000818181858888f19350505050158015610230573d6000803e3d6000fd5b50466000610539821461025757731cbd3b2770909d4e10f157cabc84c7264073c9ec61026d565b73df3e18d64bc6a983f673ab319ccae4f1a57c70975b6040519091506001600160a01b0382169084156108fc029085906000818181858888f193505050501580156102a6573d6000803e3d6000fd5b50604080513081526001600160a01b03831660208201529081018490527fddf252ad1be2c89b69c2b068fc378daa952ba7f163c4a11628f55a4df523b3ef9060600160405180910390a1505050505b50565b6000546001600160a01b031633146103225760405162461bcd60e51b81526004016100bf90610430565b6001600160a01b0381166103875760405162461bcd60e51b815260206004820152602660248201527f4f776e61626c653a206e6577206f776e657220697320746865207a65726f206160448201526564647265737360d01b60648201526084016100bf565b6102f5815b600080546001600160a01b038381166001600160a01b0319831681178455604051919092169283917f8be0079c531659141344cd1fd0a4f28419497f9722a3daafe3b4186f6b6457e09190a35050565b6004546003546000916103ee91610465565b6000546001600160a01b0316311015919050565b600060208284031215610413578081fd5b81356001600160a01b0381168114610429578182fd5b9392505050565b6020808252818101527f4f776e61626c653a2063616c6c6572206973206e6f7420746865206f776e6572604082015260600190565b60008219821115610478576104786104d3565b500190565b60008261049857634e487b7160e01b81526012600452602481fd5b500490565b60008160001904831182151516156104b7576104b76104d3565b500290565b6000828210156104ce576104ce6104d3565b500390565b634e487b7160e01b600052601160045260246000fdfea264697066735822122069d5a1e67f38ba4511e53ecae45be862be4d35bf6a6c117c3917f9f630ad5ee064736f6c63430008040033",
  "linkReferences": {},
  "deployedLinkReferences": {}
}